{
  "contractName": "MinterContract",
  "abi": [
    {
      "inputs": [
        {
          "internalType": "address",
          "name": "_goldAddress",
          "type": "address"
        }
      ],
      "stateMutability": "nonpayable",
      "type": "constructor"
    },
    {
      "inputs": [],
      "name": "goldAddress",
      "outputs": [
        {
          "internalType": "address",
          "name": "",
          "type": "address"
        }
      ],
      "stateMutability": "view",
      "type": "function"
    },
    {
      "inputs": [],
      "name": "hashToSignToGetWhiteListed",
      "outputs": [
        {
          "internalType": "bytes32",
          "name": "",
          "type": "bytes32"
        }
      ],
      "stateMutability": "view",
      "type": "function"
    },
    {
      "inputs": [
        {
          "internalType": "address",
          "name": "",
          "type": "address"
        }
      ],
      "name": "whitelist",
      "outputs": [
        {
          "internalType": "bool",
          "name": "",
          "type": "bool"
        }
      ],
      "stateMutability": "view",
      "type": "function"
    },
    {
      "inputs": [
        {
          "internalType": "bytes",
          "name": "_signature",
          "type": "bytes"
        }
      ],
      "name": "claimAToken",
      "outputs": [
        {
          "internalType": "bool",
          "name": "",
          "type": "bool"
        }
      ],
      "stateMutability": "nonpayable",
      "type": "function"
    },
    {
      "inputs": [
        {
          "internalType": "bytes",
          "name": "_signature",
          "type": "bytes"
        }
      ],
      "name": "getWhiteListed",
      "outputs": [],
      "stateMutability": "nonpayable",
      "type": "function"
    }
  ],
  "bytecode": "0x60806040527f596f75206e65656420746f207369676e207468697320737472696e670000000060001b60015534801561003757600080fd5b50604051610b08380380610b088339818101604052602081101561005a57600080fd5b8101908080519060200190929190505050806000806101000a81548173ffffffffffffffffffffffffffffffffffffffff021916908373ffffffffffffffffffffffffffffffffffffffff1602179055506001600260003373ffffffffffffffffffffffffffffffffffffffff1673ffffffffffffffffffffffffffffffffffffffff16815260200190815260200160002060006101000a81548160ff021916908315150217905550506109f5806101136000396000f3fe608060405234801561001057600080fd5b50600436106100575760003560e01c80633222d49a1461005c5780633fb9707c146101175780633fdf99c4146101355780637ea0b242146102085780639b19251a14610252575b600080fd5b6101156004803603602081101561007257600080fd5b810190808035906020019064010000000081111561008f57600080fd5b8201836020820111156100a157600080fd5b803590602001918460018302840111640100000000831117156100c357600080fd5b91908080601f016020809104026020016040519081016040528093929190818152602001838380828437600081840152601f19601f8201169050808301925050505050505091929192905050506102ae565b005b61011f6103b5565b6040518082815260200191505060405180910390f35b6101ee6004803603602081101561014b57600080fd5b810190808035906020019064010000000081111561016857600080fd5b82018360208201111561017a57600080fd5b8035906020019184600183028401116401000000008311171561019c57600080fd5b91908080601f016020809104026020016040519081016040528093929190818152602001838380828437600081840152601f19601f8201169050808301925050505050505091929192905050506103bb565b604051808215151515815260200191505060405180910390f35b610210610679565b604051808273ffffffffffffffffffffffffffffffffffffffff1673ffffffffffffffffffffffffffffffffffffffff16815260200191505060405180910390f35b6102946004803603602081101561026857600080fd5b81019080803573ffffffffffffffffffffffffffffffffffffffff16906020019092919050505061069e565b604051808215151515815260200191505060405180910390f35b6102ba600154826106be565b73ffffffffffffffffffffffffffffffffffffffff163373ffffffffffffffffffffffffffffffffffffffff161461035a576040517f08c379a000000000000000000000000000000000000000000000000000000000815260040180806020018281038252601f8152602001807f7369676e617475726520646f6573206e6f74206d617463682073656e6465720081525060200191505060405180910390fd5b6001600260003373ffffffffffffffffffffffffffffffffffffffff1673ffffffffffffffffffffffffffffffffffffffff16815260200190815260200160002060006101000a81548160ff02191690831515021790555050565b60015481565b6000806000809054906101000a900473ffffffffffffffffffffffffffffffffffffffff16905060008173ffffffffffffffffffffffffffffffffffffffff166375794a3c6040518163ffffffff1660e01b815260040160206040518083038186803b15801561042a57600080fd5b505afa15801561043e573d6000803e3d6000fd5b505050506040513d602081101561045457600080fd5b8101908080519060200190929190505050905060008060009054906101000a900473ffffffffffffffffffffffffffffffffffffffff1682604051602001808373ffffffffffffffffffffffffffffffffffffffff1673ffffffffffffffffffffffffffffffffffffffff168152602001828152602001925050506040516020818303038152906040528051906020012090506104f181866107ee565b610546576040517f08c379a000000000000000000000000000000000000000000000000000000000815260040180806020018281038252603281526020018061098e6032913960400191505060405180910390fd5b600061055282876106be565b90503373ffffffffffffffffffffffffffffffffffffffff168173ffffffffffffffffffffffffffffffffffffffff1614156105d9576040517f08c379a000000000000000000000000000000000000000000000000000000000815260040180806020018281038252602381526020018061096b6023913960400191505060405180910390fd5b8373ffffffffffffffffffffffffffffffffffffffff16636a627842336040518263ffffffff1660e01b8152600401808273ffffffffffffffffffffffffffffffffffffffff1673ffffffffffffffffffffffffffffffffffffffff168152602001915050600060405180830381600087803b15801561065857600080fd5b505af115801561066c573d6000803e3d6000fd5b5050505050505050919050565b6000809054906101000a900473ffffffffffffffffffffffffffffffffffffffff1681565b60026020528060005260406000206000915054906101000a900460ff1681565b60008060008060418551146106d957600093505050506107e8565b6020850151925060408501519150606085015160001a9050601b8160ff16101561070457601b810190505b601b8160ff161415801561071c5750601c8160ff1614155b1561072d57600093505050506107e8565b60018660405160200180807f19457468657265756d205369676e6564204d6573736167653a0a333200000000815250601c018281526020019150506040516020818303038152906040528051906020012082858560405160008152602001604052604051808581526020018460ff1660ff1681526020018381526020018281526020019450505050506020604051602081039080840390855afa1580156107d8573d6000803e3d6000fd5b5050506020604051035193505050505b92915050565b60008060008060418551146108095760009350505050610964565b6020850151925060408501519150606085015160001a9050601b8160ff16101561083457601b810190505b601b8160ff161415801561084c5750601c8160ff1614155b1561085d5760009350505050610964565b6002600060018860405160200180807f19457468657265756d205369676e6564204d6573736167653a0a333200000000815250601c018281526020019150506040516020818303038152906040528051906020012084878760405160008152602001604052604051808581526020018460ff1660ff1681526020018381526020018281526020019450505050506020604051602081039080840390855afa15801561090c573d6000803e3d6000fd5b5050506020604051035173ffffffffffffffffffffffffffffffffffffffff1673ffffffffffffffffffffffffffffffffffffffff16815260200190815260200160002060009054906101000a900460ff1693505050505b9291505056fe4d696e74657220616e642073656e646572206d75737420626520646966666572656e74436c61696d3a207369676e6572206e6f742077686974656c6973746564206f72207369676e617475726520696e76616c6964a264697066735822122039f2628cd34f64397b89050894fa53ab806c15bdc4250fe58877fdc69a7daaa064736f6c63430006060033",
  "immutableReferences": {},
  "source": "// SPDX-License-Identifier: MIT\r\npragma solidity >=0.4.22 <0.8.0;\r\nimport \"./GLDToken.sol\";\r\n\r\ncontract MinterContract {\r\n    address public goldAddress;\r\n    bytes32\r\n        public hashToSignToGetWhiteListed = 0x596f75206e65656420746f207369676e207468697320737472696e6700000000;\r\n\r\n    // allow for third party metatx account to make transactions through this\r\n    // contract like an identity but make sure the owner has whitelisted the tx\r\n    mapping(address => bool) public whitelist;\r\n\r\n    constructor(address _goldAddress) public {\r\n        goldAddress = _goldAddress;\r\n        whitelist[msg.sender] = true;\r\n    }\r\n\r\n    function claimAToken(bytes memory _signature) public returns (bool) {\r\n        GLDToken myERC721 = GLDToken(goldAddress);\r\n\r\n        // Finding next token id\r\n        uint256 nextTokenToMint = myERC721.nextTokenId();\r\n\r\n        // Creating a hash of the concatenation of the ERC721 address and the next token to mint\r\n        bytes32 _hash = keccak256(abi.encode(goldAddress, nextTokenToMint));\r\n\r\n        // Checking that the signer of the mint order is authorized\r\n        require(\r\n            signerIsWhitelisted(_hash, _signature),\r\n            \"Claim: signer not whitelisted or signature invalid\"\r\n        );\r\n\r\n        // Checking that the authorized minter is not the claimer\r\n        address tokenMintedBy = extractAddress(_hash, _signature);\r\n        require(\r\n            tokenMintedBy != msg.sender,\r\n            \"Minter and sender must be different\"\r\n        );\r\n\r\n        myERC721.mint(msg.sender);\r\n    }\r\n\r\n    function getWhiteListed(bytes memory _signature) public {\r\n        require(\r\n            msg.sender ==\r\n                extractAddress(hashToSignToGetWhiteListed, _signature),\r\n            \"signature does not match sender\"\r\n        );\r\n        whitelist[msg.sender] = true;\r\n    }\r\n\r\n    //borrowed from OpenZeppelin's ESDA stuff:\r\n    //https://github.com/OpenZeppelin/openzeppelin-solidity/blob/master/contracts/cryptography/ECDSA.sol\r\n    function signerIsWhitelisted(bytes32 _hash, bytes memory _signature)\r\n        internal\r\n        view\r\n        returns (bool)\r\n    {\r\n        bytes32 r;\r\n        bytes32 s;\r\n        uint8 v;\r\n        // Check the signature length\r\n        if (_signature.length != 65) {\r\n            return false;\r\n        }\r\n        // Divide the signature in r, s and v variables\r\n        // ecrecover takes the signature parameters, and the only way to get them\r\n        // currently is to use assembly.\r\n        // solium-disable-next-line security/no-inline-assembly\r\n        assembly {\r\n            r := mload(add(_signature, 32))\r\n            s := mload(add(_signature, 64))\r\n            v := byte(0, mload(add(_signature, 96)))\r\n        }\r\n        // Version of signature should be 27 or 28, but 0 and 1 are also possible versions\r\n        if (v < 27) {\r\n            v += 27;\r\n        }\r\n        // If the version is correct return the signer address\r\n        if (v != 27 && v != 28) {\r\n            return false;\r\n        } else {\r\n            // solium-disable-next-line arg-overflow\r\n            return\r\n                whitelist[ecrecover(\r\n                    keccak256(\r\n                        abi.encodePacked(\r\n                            \"\\x19Ethereum Signed Message:\\n32\",\r\n                            _hash\r\n                        )\r\n                    ),\r\n                    v,\r\n                    r,\r\n                    s\r\n                )];\r\n        }\r\n    }\r\n\r\n    function extractAddress(bytes32 _hash, bytes memory _signature)\r\n        internal\r\n        pure\r\n        returns (address)\r\n    {\r\n        bytes32 r;\r\n        bytes32 s;\r\n        uint8 v;\r\n        // Check the signature length\r\n        if (_signature.length != 65) {\r\n            return address(0);\r\n        }\r\n        // Divide the signature in r, s and v variables\r\n        // ecrecover takes the signature parameters, and the only way to get them\r\n        // currently is to use assembly.\r\n        // solium-disable-next-line security/no-inline-assembly\r\n        assembly {\r\n            r := mload(add(_signature, 32))\r\n            s := mload(add(_signature, 64))\r\n            v := byte(0, mload(add(_signature, 96)))\r\n        }\r\n        // Version of signature should be 27 or 28, but 0 and 1 are also possible versions\r\n        if (v < 27) {\r\n            v += 27;\r\n        }\r\n        // If the version is correct return the signer address\r\n        if (v != 27 && v != 28) {\r\n            return address(0);\r\n        } else {\r\n            // solium-disable-next-line arg-overflow\r\n            return\r\n                ecrecover(\r\n                    keccak256(\r\n                        abi.encodePacked(\r\n                            \"\\x19Ethereum Signed Message:\\n32\",\r\n                            _hash\r\n                        )\r\n                    ),\r\n                    v,\r\n                    r,\r\n                    s\r\n                );\r\n        }\r\n    }\r\n}\r\n",
  "sourcePath": "D:/Victor/Ethereum/TD8/contracts/MinterContract.sol",
  "compiler": {
    "name": "solc",
    "version": "0.6.6+commit.6c089d02.Emscripten.clang"
  },
  "schemaVersion": "3.3.2",
  "updatedAt": "2020-12-11T18:15:30.349Z",
  "devdoc": {
    "methods": {}
  },
  "userdoc": {
    "methods": {}
  }
}