{
  "contractName": "StandardToken",
  "abi": [
    {
      "inputs": [
        {
          "internalType": "address",
          "name": "_to",
          "type": "address"
        },
        {
          "internalType": "uint256",
          "name": "_value",
          "type": "uint256"
        }
      ],
      "name": "transfer",
      "outputs": [
        {
          "internalType": "bool",
          "name": "",
          "type": "bool"
        }
      ],
      "stateMutability": "nonpayable",
      "type": "function"
    }
  ],
  "bytecode": "0x608060405234801561001057600080fd5b5060ce8061001f6000396000f3fe6080604052348015600f57600080fd5b506004361060285760003560e01c8063a9059cbb14602d575b600080fd5b607660048036036040811015604157600080fd5b81019080803573ffffffffffffffffffffffffffffffffffffffff169060200190929190803590602001909291905050506090565b604051808215151515815260200191505060405180910390f35b60009291505056fea2646970667358221220f2fa4e6eed57cdc05c2c1e9f11f67b87860fb36a3ee17ddb1e77a43943ef884e64736f6c63430006060033",
  "immutableReferences": {},
  "source": "// SPDX-License-Identifier: MIT\r\npragma solidity >=0.4.22 <0.8.0;\r\n\r\n/*\r\n  Bouncer identity proxy that executes meta transactions for etherless accounts.\r\n  Purpose:\r\n  I wanted a way for etherless accounts to transact with the blockchain through an identity proxy without paying gas.\r\n  I'm sure there are many examples of something like this already deployed that work a lot better, this is just me learning.\r\n    (I would love feedback: https://twitter.com/austingriffith)\r\n  1) An etherless account crafts a meta transaction and signs it\r\n  2) A (properly incentivized) relay account submits the transaction to the BouncerProxy and pays the gas\r\n  3) If the meta transaction is valid AND the etherless account is a valid 'Bouncer', the transaction is executed\r\n      (and the sender is paid in arbitrary tokens from the signer)\r\n  Inspired by:\r\n    @avsa - https://www.youtube.com/watch?v=qF2lhJzngto found this later: https://github.com/status-im/contracts/blob/73-economic-abstraction/contracts/identity/IdentityGasRelay.sol\r\n    @mattgcondon - https://twitter.com/mattgcondon/status/1022287545139449856 && https://twitter.com/mattgcondon/status/1021984009428107264\r\n    @owocki - https://twitter.com/owocki/status/1021859962882908160\r\n    @danfinlay - https://twitter.com/danfinlay/status/1022271384938983424\r\n    @PhABCD - https://twitter.com/PhABCD/status/1021974772786319361\r\n    gnosis-safe\r\n    uport-identity\r\n*/\r\n\r\n//use case 1:\r\n//you deploy the bouncer proxy and use it as a standard identity for your own etherless accounts\r\n//  (multiple devices you don't want to store eth on or move private keys to will need to be added as Bouncers)\r\n//you run your own relayer and the rewardToken is 0\r\n\r\n//use case 2:\r\n//you deploy the bouncer proxy and use it as a standard identity for your own etherless accounts\r\n//  (multiple devices you don't want to store eth on or move private keys to will need to be added as Bouncers)\r\n//  a community if relayers are incentivized by the rewardToken to pay the gas to run your transactions for you\r\n//SEE: universal logins via @avsa\r\n\r\n//use case 3:\r\n//you deploy the bouncer proxy and use it to let third parties submit transactions as a standard identity\r\n//  (multiple developer accounts will need to be added as Bouncers to 'whitelist' them to make meta transactions)\r\n//you run your own relayer and pay for all of their transactions, revoking any bad actors if needed\r\n//SEE: GitCoin (via @owocki) wants to pay for some of the initial transactions of their Developers to lower the barrier to entry\r\n\r\n//use case 4:\r\n//you deploy the bouncer proxy and use it to let third parties submit transactions as a standard identity\r\n//  (multiple developer accounts will need to be added as Bouncers to 'whitelist' them to make meta transactions)\r\n//you run your own relayer and pay for all of their transactions, revoking any bad actors if needed\r\n\r\ncontract BouncerProxy {\r\n    //whitelist the deployer so they can whitelist others\r\n    constructor() public {\r\n        whitelist[msg.sender] = true;\r\n    }\r\n\r\n    //to avoid replay\r\n    mapping(address => uint256) public nonce;\r\n    // allow for third party metatx account to make transactions through this\r\n    // contract like an identity but make sure the owner has whitelisted the tx\r\n    mapping(address => bool) public whitelist;\r\n\r\n    function updateWhitelist(address _account, bool _value)\r\n        public\r\n        returns (bool)\r\n    {\r\n        require(\r\n            whitelist[msg.sender],\r\n            \"BouncerProxy::updateWhitelist Account Not Whitelisted\"\r\n        );\r\n        whitelist[_account] = _value;\r\n        emit UpdateWhitelist(_account, _value);\r\n        return true;\r\n    }\r\n\r\n    event UpdateWhitelist(address _account, bool _value);\r\n\r\n    function getHash(\r\n        address signer,\r\n        address destination,\r\n        uint256 value,\r\n        bytes memory data,\r\n        address rewardToken,\r\n        uint256 rewardAmount\r\n    ) public view returns (bytes32) {\r\n        return\r\n            keccak256(\r\n                abi.encodePacked(\r\n                    address(this),\r\n                    signer,\r\n                    destination,\r\n                    value,\r\n                    data,\r\n                    rewardToken,\r\n                    rewardAmount,\r\n                    nonce[signer]\r\n                )\r\n            );\r\n    }\r\n\r\n    // original forward function copied from https://github.com/uport-project/uport-identity/blob/develop/contracts/Proxy.sol\r\n    function forward(\r\n        bytes memory sig,\r\n        address signer,\r\n        address destination,\r\n        uint256 value,\r\n        bytes memory data,\r\n        address rewardToken,\r\n        uint256 rewardAmount\r\n    ) public payable returns (bool) {\r\n        //the hash contains all of the information about the meta transaction to be called\r\n        bytes32 _hash = getHash(\r\n            signer,\r\n            destination,\r\n            value,\r\n            data,\r\n            rewardToken,\r\n            rewardAmount\r\n        );\r\n        //increment the hash so this tx can't run again\r\n        nonce[signer]++;\r\n        //this makes sure signer signed correctly AND signer is a valid bouncer\r\n        require(\r\n            signerIsWhitelisted(_hash, sig),\r\n            \"BouncerProxy::forward Signer is not whitelisted\"\r\n        );\r\n        //make sure the signer pays in whatever token (or ether) the sender and signer agreed to\r\n        // or skip this if the sender is incentivized in other ways and there is no need for a token\r\n        if (rewardAmount > 0) {\r\n            //Address 0 mean reward with ETH\r\n            if (rewardToken == address(0)) {\r\n                //REWARD ETHER\r\n\r\n                (bool success, ) = (\r\n                    msg.sender.call{value: rewardAmount, gas: 36000}(\"\")\r\n                );\r\n                require(success);\r\n            } else {\r\n                //REWARD TOKEN\r\n                require(\r\n                    (StandardToken(rewardToken)).transfer(\r\n                        msg.sender,\r\n                        rewardAmount\r\n                    )\r\n                );\r\n            }\r\n        }\r\n        //execute the transaction with all the given parameters\r\n        require(executeCall(destination, value, data));\r\n        emit Forwarded(\r\n            sig,\r\n            signer,\r\n            destination,\r\n            value,\r\n            data,\r\n            rewardToken,\r\n            rewardAmount,\r\n            _hash\r\n        );\r\n    }\r\n\r\n    // when some frontends see that a tx is made from a bouncerproxy, they may want to parse through these events to find out who the signer was etc\r\n    event Forwarded(\r\n        bytes sig,\r\n        address signer,\r\n        address destination,\r\n        uint256 value,\r\n        bytes data,\r\n        address rewardToken,\r\n        uint256 rewardAmount,\r\n        bytes32 _hash\r\n    );\r\n\r\n    // copied from https://github.com/uport-project/uport-identity/blob/develop/contracts/Proxy.sol\r\n    // which was copied from GnosisSafe\r\n    // https://github.com/gnosis/gnosis-safe-contracts/blob/master/contracts/GnosisSafe.sol\r\n    function executeCall(\r\n        address to,\r\n        uint256 value,\r\n        bytes memory data\r\n    ) internal returns (bool success) {\r\n        assembly {\r\n            success := call(\r\n                gas(),\r\n                to,\r\n                value,\r\n                add(data, 0x20),\r\n                mload(data),\r\n                0,\r\n                0\r\n            )\r\n        }\r\n    }\r\n\r\n    //borrowed from OpenZeppelin's ESDA stuff:\r\n    //https://github.com/OpenZeppelin/openzeppelin-solidity/blob/master/contracts/cryptography/ECDSA.sol\r\n    function signerIsWhitelisted(bytes32 _hash, bytes memory _signature)\r\n        internal\r\n        view\r\n        returns (bool)\r\n    {\r\n        bytes32 r;\r\n        bytes32 s;\r\n        uint8 v;\r\n        // Check the signature length\r\n        if (_signature.length != 65) {\r\n            return false;\r\n        }\r\n        // Divide the signature in r, s and v variables\r\n        // ecrecover takes the signature parameters, and the only way to get them\r\n        // currently is to use assembly.\r\n        // solium-disable-next-line security/no-inline-assembly\r\n        assembly {\r\n            r := mload(add(_signature, 32))\r\n            s := mload(add(_signature, 64))\r\n            v := byte(0, mload(add(_signature, 96)))\r\n        }\r\n        // Version of signature should be 27 or 28, but 0 and 1 are also possible versions\r\n        if (v < 27) {\r\n            v += 27;\r\n        }\r\n        // If the version is correct return the signer address\r\n        if (v != 27 && v != 28) {\r\n            return false;\r\n        } else {\r\n            // solium-disable-next-line arg-overflow\r\n            return\r\n                whitelist[ecrecover(\r\n                    keccak256(\r\n                        abi.encodePacked(\r\n                            \"\\x19Ethereum Signed Message:\\n32\",\r\n                            _hash\r\n                        )\r\n                    ),\r\n                    v,\r\n                    r,\r\n                    s\r\n                )];\r\n        }\r\n    }\r\n}\r\n\r\ncontract StandardToken {\r\n    function transfer(address _to, uint256 _value) public returns (bool) {}\r\n}\r\n",
  "sourcePath": "D:/Victor/Ethereum/TD8/contracts/BouncerProxy.sol",
  "compiler": {
    "name": "solc",
    "version": "0.6.6+commit.6c089d02.Emscripten.clang"
  },
  "schemaVersion": "3.3.2",
  "updatedAt": "2020-12-13T21:57:06.445Z",
  "devdoc": {
    "methods": {}
  },
  "userdoc": {
    "methods": {}
  }
}